:1000000028C04CC024C24AC049C0D7C147C046C05E
:1000100045C044C043C042C09CC240C03FC0000075
:10002000000037000000000038000000000036002B
:10003000020202020202020202020102040810206D
:1000400020041008010200000400000000005C050C
:10005000CD0511241FBECFE5D2E0DEBFCDBF21E02C
:10006000A0E9B0E001C01D92A430B207E1F710E0B2
:10007000A0E6B0E0E6EDFCE002C005900D92A039EC
:10008000B107D9F710E0C8E2D0E003C02197FE0124
:1000900010D6C732D107D1F770D211C6B1CFAF9207
:1000A000BF92CF92DF92EF92FF920F931F93CF9365
:1000B000DF936C017B018B01040F151FEB015E01C7
:1000C000AE18BF08C017D10759F06991D601ED915C
:1000D000FC910190F081E02DC6010995892B79F7FB
:1000E000C501DF91CF911F910F91FF90EF90DF90AD
:1000F000CF90BF90AF900895823089F018F481308E
:1001000051F00895833019F0843009F008958CB5CA
:100110008F7D8CBD08958AB58F778ABD08958AB585
:100120008F7DFBCF1F93CF93DF93282F30E0F90112
:10013000EC5BFF4F8491F901E65CFF4FD491F9012C
:10014000E05DFF4FC491CC23A1F0162F8111D4DFC5
:10015000EC2FF0E0EE0FFF1FEC5DFF4FA591B49187
:100160008FB7F894EC91111108C0D095DE23DC9381
:100170008FBFDF91CF911F910895DE2BF8CFCF93E2
:10018000DF9390E0FC01E65CFF4F2491805D9F4F80
:10019000FC0184918823C9F090E0880F991FFC012D
:1001A000E25EFF4FA591B491FC01EC5DFF4FC5915C
:1001B000D49161110DC09FB7F8948C912095822342
:1001C0008C938881282328839FBFDF91CF91089546
:1001D000623051F49FB7F8943C91822F809583232D
:1001E0008C93E8812E2BEFCF8FB7F894EC912E2BC8
:1001F0002C938FBFEACF3FB7F8948091D1009091B4
:10020000D200A091D300B091D40022B708B601FE6D
:1002100005C02F3F19F00196A11DB11D3FBFBA2F98
:10022000A92F982F8827BC01CD01620F711D811D58
:10023000911D46E0660F771F881F991F4A95D1F7D9
:1002400008952091D7003091D8002817390771F40C
:100250009091D5008091D600981741F0E091D5009B
:10026000F0E0E057FF4F808190E008958FEF9FEF1F
:1002700008950895EF92FF920F931F93CF93DF930A
:10028000DC015C96ED90FC905D97E114F10479F44B
:1002900081E090E013969C938E93129790E080E01B
:1002A000DF91CF911F910F91FF90EF90089551969C
:1002B000ED91FC91529750968C915097982F909574
:1002C0000FB75E962C915E97122F127021FD6095EC
:1002D000F8942081112319F1282B2083E70121971D
:1002E000F1F728E0462F50E0308160FF1AC0382B2C
:1002F0003083E7012197F1F7BA0175956795215091
:1003000089F7112381F08081892380830FBF5C9658
:100310008D919C910197F1F781E090E0C1CF292365
:10032000DCCF3923E5CF9081892BEFCF2091D70007
:100330003091D8002817390769F48091D6002091B0
:10034000D50090E0805C9F4F821B910960E470E0D3
:1003500067D4089590E080E008952091D70030910F
:10036000D80028173907B9F49091D5008091D600AC
:10037000981789F0E091D500F0E0E057FF4F8081B9
:100380002091D50030E02F5F3F4F2F73332720930C
:10039000D50090E008958FEF9FEF089590E080E002
:1003A0000895FC0101900020E9F73197AF01481B47
:1003B000590BBC0185EE90E072CE1F920F920FB6E2
:1003C0000F9211242F933F938F939F93AF93BF93DB
:1003D0008091D9009091DA00A091DB00B091DC000F
:1003E0003091D00020E3230F2D3758F54096A11D02
:1003F000B11D2093D0008093D9009093DA00A09390
:10040000DB00B093DC008091D1009091D200A091EC
:10041000D300B091D4000196A11DB11D8093D100ED
:100420009093D200A093D300B093D400BF91AF912A
:100430009F918F913F912F910F900FBE0F901F9022
:10044000189523EB230F4196A11DB11DD2CF1F920A
:100450000F920FB60F9211242F933F934F935F93F8
:100460006F937F938F939F93AF93BF93EF93FF937C
:10047000E091D700F091D800309749F0A685B78574
:100480008585968D91FF14C09C918923A1F4FF91DD
:10049000EF91BF91AF919F918F917F916F915F91FC
:1004A0004F913F912F910F900FBE0F901F90189575
:1004B0009C91892361F7A389B4899C918589809552
:1004C00089238C93868997890197F1F7608D718DC7
:1004D000A685B785558538E020E0CB010197F1F777
:1004E000822F90E095958795282F4C91452309F010
:1004F0002068315091F7868D81FD20958091D6003E
:1005000090E001968F7399273091D500381799F0B4
:10051000A091D600B0E0A057BF4F2C938093D60097
:10052000828D938D0197F1F7A389B4898C91958978
:10053000892B8C93ACCF868D8160868FF1CF1F92F3
:100540000F920FB60F9211240F900FBE0F901F90B5
:1005500018951F920F920FB60F9211248F930FB61A
:10056000F894A89581B5886181BD11BC0FBE8F91AB
:100570000F900FBE0F901F901895CF93DF93CDB7BC
:10058000DEB7A1970FB6F894DEBF0FBECDBF78944B
:100590008AB582608ABD8AB581608ABD83B7826070
:1005A00083BF83B7816083BF89B7826089BF80B70B
:1005B000826080BF3298319A309A379A8CB58064C5
:1005C0008CBD109200011092FF001092FE0010925C
:1005D000FD001092FC001092FB0087E190E09093E8
:1005E0000201809301014091F100453010F521E0B6
:1005F0002093FB001092FC0065E170E07093FE0018
:100600006093FD0067E070E0709300016093FF006D
:100610003BB730623BBF65E370E07093F9006093D5
:10062000F80001C0220F4A95EAF72093FA000197DB
:10063000F1F78091FF0090910001892B49F1E09141
:10064000D700F091D80020E0E53EF20709F130979D
:1006500039F0A389B4899C918589809589238C93ED
:10066000809103018E7F809303011092D600109237
:10067000D50085EE90E09093D8008093D700E0916C
:10068000F800F091F90080819091FA00892B808325
:1006900084E690E0A0E0B0E08093E9009093EA0067
:1006A000A093EB00B093EC0062E083E068DD61E0D2
:1006B00081E065DD1092E4001092E3002AE0822ED2
:1006C000912CA12CB12C6091E30081E02BDDAB9A41
:1006D00088E19EE00FB6F894A89581BD0FBE91BD4C
:1006E00085B7877E806185BFA89581B5806481BD0F
:1006F000379885B7806285BF889585B78F7D85BF20
:10070000AB98379AE7E4F0E08491EDE3F0E0E49011
:10071000E3E3F0E0F490FF2009F43DC08111ECDC4C
:10072000EF2DF0E0EE0FFF1FE65DFF4FA591B491B6
:100730008C91E82281F185EE90E0F8DD181619061B
:100740000CF489C08091E3009091E400892B09F0BA
:1007500046C18091E1009091E20018161906A4F5B7
:100760008091DF009091E00001979093E0008093EA
:10077000DF001816190644F1809160009091610025
:100780009093E0008093DF00E1E0F0E0F093E4007C
:10079000E093E30019C01092E4001092E30080910E
:1007A000E1009091E2009093E0008093DF0080915F
:1007B000DD009091DE00892B09F446C082E890E0CC
:1007C000F0DD88E890E0EDDD8091DD009091DE00C5
:1007D000892BD1F18091E3009091E400892B09F0FD
:1007E00068C184E790E0DDDDC090DF00D090E000DC
:1007F0000D2C000CEE08FF08F7FE39C16DE285EE06
:1008000090E038DD22273327A9012C193D094E0934
:100810005F0919A27E01F1E2EF0EF11CCA01B901D4
:10082000A501940110D2605DF70162937F0121154B
:1008300031054105510591F7E114F10411F0C701AB
:10084000B0DD88E890E0ADDD80E090E0892B09F430
:100850003ACFD6DB38CFCE0101967C012C01D12CCA
:10086000C12C3C012FB7F8948091D9009091DA0007
:10087000A091DB00B091DC002FBF8093ED0090933E
:10088000EE00A093EF00B093F00085EE90E065DD00
:1008900097FF03C12FB7F8948091D9009091DA00A7
:1008A000A091DB00B091DC002FBF4091ED00509192
:1008B000EE006091EF007091F000841B950BA60B89
:1008C000B70B4091E9005091EA006091EB00709104
:1008D000EC0084179507A607B707B8F2CC2049F1BA
:1008E000F701EC0DFD1D10828091DD009091DE007E
:1008F000892B41F08BE890E054DDC70152DD88E898
:1009000090E04FDD90E080E0F70121917F010196BA
:10091000233521F0243411F0203541F5222E220F09
:100920003308860D971D55D18C0197FF02C010E04A
:1009300000E0F6E42F163104E1F058F584E42816BF
:10094000310409F0FFCE0115110509F043C081E023
:1009500090E02091DD003091DE00232B11F090E03B
:1009600080E09093DE008093DD002ECF8C159D05F6
:100970005CF28091E3009091E400019709F0E2CEEF
:1009800080916000909161009093E0008093DF007F
:10099000D9CE90E529163104A1F0E3E52E163104F5
:1009A00009F0D0CE81E090E09093E4008093E300E2
:1009B00010936100009360001093E0000093DF004B
:1009C00003CF1092E4001092E3001093E200009332
:1009D000E100F2CF1093DE000093DD00F5CE8091B0
:1009E000DF009091E00001979093E0008093DF009A
:1009F000181619060CF4E8CE61E083E0C0DB60E075
:100A000083E090DBF8DB2B013C0184E6C82ED12C7F
:100A1000E12CF12CF0DB6419750986099709683E11
:100A2000734081059105B0F3F1E0CF1AD108E108D8
:100A3000F10828EE420E23E0521E611C711CC11405
:100A4000D104E104F10431F761E083E06BDB62E0A3
:100A500083E095DB1092E4001092E3008091E100C6
:100A60009091E2009093E0008093DF00ADCEA7016B
:100A7000960119A27E01F1E2EF0EF11CCA01B90143
:100A8000A5019401E0D0605DF70162937F0121151B
:100A900031054105510591F7CFCEF20181932F0128
:100AA000FFEFCF1ADF0A2AE0C216D10409F0DACE2E
:100AB00015CF8BE790E097CE1092E8001092E700F8
:100AC00088EE93E0A0E0B0E08093E9009093EA0024
:100AD000A093EB00B093EC0086E690E09093E600E4
:100AE0008093E5001092FC001092FB001092FE0033
:100AF0001092FD00109200011092FF00109202016E
:100B000010920101609103016E7F6D7F609303017C
:100B10006695617081E0682782E004DB61E082E035
:100B20002EDBECE3F0E0E491E093F500E2E3F0E0AB
:100B3000E491F0E0EE0FFF1FEC5DFF4F8591949183
:100B40009093F7008093F60060E084E018DB8091DA
:100B5000030181FD03C061E084E0E4DA84E0809376
:100B6000F100EEE3F0E0E491E093F200E4E3F0E082
:100B7000E491F0E0EE0FFF1FE65DFF4F8591949149
:100B80009093F4008093F3008091E1009091E20053
:100B90009093E0008093DF00089586E690E09093C4
:100BA000E6008093E5008091D7009091D800855EA3
:100BB000904071F4E091F800F091F90090818091FB
:100BC000FA008095892380831092D8001092D70074
:100BD0000895FC0188279927E89421912032E9F3B0
:100BE000293010F02E30C8F32B3239F02D3231F489
:100BF000689403C00BD0820F911D219120532A309D
:100C0000C8F31EF4909581959F4F0895BC01880FFD
:100C1000991F880F991F860F971F880F991F089596
:100C200097FB072E16F4009406D077FD08D02DD040
:100C300007FC05D03EF4909581959F4F08957095DF
:100C400061957F4F0895A1E21A2EAA1BBB1BFD01DF
:100C50000DC0AA1FBB1FEE1FFF1FA217B307E4079B
:100C6000F50720F0A21BB30BE40BF50B661F771FF3
:100C7000881F991F1A9469F76095709580959095D3
:100C80009B01AC01BD01CF010895AA1BBB1B51E123
:100C900007C0AA1FBB1FA617B70710F0A61BB70BEC
:100CA000881F991F5A95A9F780959095BC01CD0191
:100CB0000895EE0FFF1F0590F491E02D099410E0C8
:100CC000C8E2D0E003C0FE01F4DF2196C932D107AB
:060CD000D1F7F894FFCFFC
:100CD600100E000000003A014F00CE0139019601C6
:100CE600AD012101536C656570200057617463681E
:100CF60020005265736574000D0A00436D64200080
:00000001FF
