:1000000027C04BC0A1C149C048C054C146C045C06B
:1000100044C043C042C041C0ABC13FC03EC000006D
:10002000000037000000000038000000000036002B
:10003000020202020202020202020102040810206D
:100040002004100801020000040000000000050365
:1000500011241FBECFE5D2E0DEBFCDBF10E0A0E689
:10006000B0E0E2EAF6E002C005900D92A236B107D8
:10007000D9F720E0A2E6B0E001C01D92A337B20795
:10008000E1F710E0C8E2D0E003C02197FE0101D300
:10009000C732D107D1F780D102C3B2CF823089F005
:1000A00018F4813051F00895833019F0843009F04C
:1000B00008958CB58F7D8CBD08958AB58F778ABDE4
:1000C00008958AB58F7DFBCFCF93DF93282F30E043
:1000D000F901EC5BFF4F8491F901E65CFF4FD4918D
:1000E000F901E05DFF4FC491CC2399F08111D6DF77
:1000F000EC2FF0E0EE0FFF1FE65DFF4FA591B491EE
:10010000EC91ED2381E090E009F480E0DF91CF9164
:10011000089580E090E0FACF1F93CF93DF93282FCC
:1001200030E0F901EC5BFF4F8491F901E65CFF4F91
:10013000D491F901E05DFF4FC491CC23A1F0162FBB
:100140008111ACDFEC2FF0E0EE0FFF1FEC5DFF4FF5
:10015000A591B4918FB7F894EC91111108C0D09586
:10016000DE23DC938FBFDF91CF911F910895DE2BAB
:10017000F8CFCF93DF9390E0FC01E65CFF4F249132
:10018000805D9F4FFC0184918823D1F090E0880F1F
:10019000991FFC01E25EFF4FA591B491FC01EC5D5B
:1001A000FF4FC591D491623071F49FB7F8943C91A0
:1001B000822F809583238C93E8812E2B28839FBFE9
:1001C000DF91CF9108958FB7F894EC912E2B2C935B
:1001D0008FBFF6CF3FB7F894809167009091680089
:1001E000A0916900B0916A0022B708B601FE05C06F
:1001F0002F3F19F00196A11DB11D3FBFBA2FA92FA6
:10020000982F8827BC01CD01620F711D811D911DA2
:1002100046E0660F771F881F991F4A95D1F708950A
:100220004F925F926F927F928F929F92AF92BF9206
:10023000CF92DF92EF92FF92CF93DF93EC01072EE4
:10024000000C880B990B28EE33E040E050E0E6D13B
:100250002B013C01BFDF4B015C016B017C01C81825
:10026000D908EA08FB08C414D504E604F70438F4F6
:1002700083E02ADF8C179D0711F4ACDFEECFC701B6
:10028000B6016C507E4F8F4F9F4F28EE33E040E019
:1002900050E0DDD1C901DF91CF91FF90EF90DF9069
:1002A000CF90BF90AF909F908F907F906F905F9016
:1002B0004F9008951F920F920FB60F9211242F9313
:1002C0003F938F939F93AF93BF93809163009091DF
:1002D0006400A0916500B09166003091620020E357
:1002E000230F2D3758F54096A11DB11D20936200B4
:1002F0008093630090936400A0936500B0936600C0
:100300008091670090916800A0916900B0916A00A7
:100310000196A11DB11D8093670090936800A09382
:100320006900B0936A00BF91AF919F918F913F9107
:100330002F910F900FBE0F901F90189523EB230F56
:100340004196A11DB11DD2CF1F920F920FB60F92F1
:1003500011248F939F9381E090E090936C008093A1
:100360006B009F918F910F900FBE0F901F9018956B
:100370001F920F920FB60F9211248F930FB6F8941D
:10038000A89581B5886181BD11BC0FBE8F910F907A
:100390000FBE0F901F90189578948AB582608ABD21
:1003A0008AB581608ABD83B7826083BF83B781606D
:1003B00083BF89B7826089BF80B7826080BF32986F
:1003C000319A309A379A8CB580648CBD62E084E0B3
:1003D000D0DE62E083E0CDDE61E081E0CADE109233
:1003E00072001092710038E1D32E4EE0C42E00E06E
:1003F00010E0C1E0D0E0809171009091720060E067
:10040000892B89F060916F0070917000809160007D
:100410009091610097FD01969595879568177907EA
:100420000CF058C0617081E077DE10926C00109281
:100430006B008BB780628BBF85B3886185BB0FB6BD
:10044000F894A895D1BC0FBEC1BC85B7877E8061EA
:1004500085BFA89581B5806481BD3798789485B7AC
:10046000806285BF8895F89485B3877E85BB85B704
:100470008F7D85BF379A789484E026DE7C01809159
:100480006B0090916C00892B71F160E17EE090E04F
:1004900080E0C6DE853091050CF4A8C09C01255093
:1004A000310925303105C0F46AE070E081E090E068
:1004B000B7DE60E17EE090E080E0B2DEEF2809F098
:1004C0003FC0109272001092710080916D00909167
:1004D0006E0087C061E0A7CF9C012A50310924300B
:1004E0003E4008F473C0EF2861F380917100909151
:1004F0007200009771F580916D0090916E00181652
:100500001906C4F480916F00909170000197909348
:10051000700080936F001816190664F080916000D7
:10052000909161009093700080936F00D09372005F
:10053000C09371000115110509F45DCF61DD5BCF3A
:10054000109272001092710090936E0080936D0073
:1005500048C0019779F780916F00909170000197E2
:100560009093700080936F00181619061CF361E0D9
:1005700084E0FFDD60E084E0CFDD2CDE2B013C0178
:1005800084E6882E912CA12CB12C24DE64197509E7
:1005900086099709683E734081059105B0F381E0B3
:1005A000881A9108A108B10828EE420E23E0521ED5
:1005B000611C711C81149104A104B10431F761E044
:1005C00084E0AADD62E084E0D4DD7BCFEF2809F48B
:1005D00078CFD0937200C0937100909361008093A4
:1005E00060009093700080936F00A4CFEF2809F40F
:1005F00068CF8091710090917200019709F09ACFB5
:100600008091600090916100ECCF80916D0090919D
:100610006E009093700080936F000895EE27FF277F
:10062000AA27BB2708C0A20FB31FE41FF51F220F84
:10063000331F441F551F969587957795679598F3B7
:100640007040A9F7009799F7BD01CF010895A1E285
:100650001A2EAA1BBB1BFD010DC0AA1FBB1FEE1F3C
:10066000FF1FA217B307E407F50720F0A21BB30B87
:10067000E40BF50B661F771F881F991F1A9469F703
:1006800060957095809590959B01AC01BD01CF015F
:100690000895EE0FFF1F0590F491E02D0994F89452
:0206A000FFCF8A
:0206A200100E38
:00000001FF
