:1000000027C04BC0A1C149C048C054C146C045C06B
:1000100044C043C042C041C0ABC13FC03EC000006D
:10002000000037000000000038000000000036002B
:10003000020202020202020202020102040810206D
:100040002004100801020000040000000000F20279
:1000500011241FBECFE5D2E0DEBFCDBF10E0A0E689
:10006000B0E0ECE7F6E002C005900D92A236B107D1
:10007000D9F720E0A2E6B0E001C01D92A337B20795
:10008000E1F710E0C8E2D0E003C02197FE01EED214
:10009000C732D107D1F780D1EFC2B2CF823089F019
:1000A00018F4813051F00895833019F0843009F04C
:1000B00008958CB58F7D8CBD08958AB58F778ABDE4
:1000C00008958AB58F7DFBCFCF93DF93282F30E043
:1000D000F901EC5BFF4F8491F901E65CFF4FD4918D
:1000E000F901E05DFF4FC491CC2399F08111D6DF77
:1000F000EC2FF0E0EE0FFF1FE65DFF4FA591B491EE
:10010000EC91ED2381E090E009F480E0DF91CF9164
:10011000089580E090E0FACF1F93CF93DF93282FCC
:1001200030E0F901EC5BFF4F8491F901E65CFF4F91
:10013000D491F901E05DFF4FC491CC23A1F0162FBB
:100140008111ACDFEC2FF0E0EE0FFF1FEC5DFF4FF5
:10015000A591B4918FB7F894EC91111108C0D09586
:10016000DE23DC938FBFDF91CF911F910895DE2BAB
:10017000F8CFCF93DF9390E0FC01E65CFF4F249132
:10018000805D9F4FFC0184918823D1F090E0880F1F
:10019000991FFC01E25EFF4FA591B491FC01EC5D5B
:1001A000FF4FC591D491623071F49FB7F8943C91A0
:1001B000822F809583238C93E8812E2B28839FBFE9
:1001C000DF91CF9108958FB7F894EC912E2B2C935B
:1001D0008FBFF6CF3FB7F894809167009091680089
:1001E000A0916900B0916A0022B708B601FE05C06F
:1001F0002F3F19F00196A11DB11D3FBFBA2FA92FA6
:10020000982F8827BC01CD01620F711D811D911DA2
:1002100046E0660F771F881F991F4A95D1F708950A
:100220004F925F926F927F928F929F92AF92BF9206
:10023000CF92DF92EF92FF92CF93DF93EC01072EE4
:10024000000C880B990B28EE33E040E050E0D3D14E
:100250002B013C01BFDF4B015C016B017C01C81825
:10026000D908EA08FB08C414D504E604F70438F4F6
:1002700083E02ADF8C179D0711F4ACDFEECFC701B6
:10028000B6016C507E4F8F4F9F4F28EE33E040E019
:1002900050E0CAD1C901DF91CF91FF90EF90DF907C
:1002A000CF90BF90AF909F908F907F906F905F9016
:1002B0004F9008951F920F920FB60F9211242F9313
:1002C0003F938F939F93AF93BF93809163009091DF
:1002D0006400A0916500B09166003091620020E357
:1002E000230F2D3758F54096A11DB11D20936200B4
:1002F0008093630090936400A0936500B0936600C0
:100300008091670090916800A0916900B0916A00A7
:100310000196A11DB11D8093670090936800A09382
:100320006900B0936A00BF91AF919F918F913F9107
:100330002F910F900FBE0F901F90189523EB230F56
:100340004196A11DB11DD2CF1F920F920FB60F92F1
:1003500011248F939F9381E090E090936C008093A1
:100360006B009F918F910F900FBE0F901F9018956B
:100370001F920F920FB60F9211248F930FB6F8941D
:10038000A89581B5886181BD11BC0FBE8F910F907A
:100390000FBE0F901F90189578948AB582608ABD21
:1003A0008AB581608ABD83B7826083BF83B781606D
:1003B00083BF89B7826089BF80B7826080BF32986F
:1003C000319A309A379A8CB580648CBD62E084E0B3
:1003D000D0DE62E083E0CDDE61E081E0CADE109233
:1003E00072001092710098E1D92E2EE0C22E30E0FA
:1003F000E32E30E0F32E01E010E080917100909147
:10040000720060E0892B09F061E081E085DE1092E6
:100410006C0010926B008BB780628BBF85B38861D4
:1004200085BB0FB6F894A895D1BC0FBEC1BC85B7EB
:10043000877E806185BFA89581B5806481BD37982E
:10044000789485B7806285BF8895F89485B3877E58
:1004500085BB85B78F7D85BF379A789484E034DE7D
:10046000EC0180916B0090916C00892B09F48BC09A
:1004700060E17EE090E080E0D3DE853091050CF411
:1004800074C09C01255031092530310508F05DC04C
:100490006AE070E081E090E0C3DE60E17EE090E041
:1004A00080E0BEDECD2B49F41092720010927100F4
:1004B00080916F009091700053C010927200109262
:1004C00071009093700080936F004AC0019709F00B
:1004D00083C080916D0090916E00019790936E00A3
:1004E00080936D00181619060CF476C061E084E064
:1004F00040DE60E084E010DE6DDE2B013C0184E62E
:10050000882E912CA12CB12C65DE64197509860901
:100510009709683E734081059105B0F321E0821A86
:100520009108A108B10888EE480E83E0581E611CAE
:10053000711C81149104A104B10431F761E084E0DD
:10054000EBDD62E084E015DEAFCFCD2B09F4ACCF5C
:10055000109372000093710090936100809360008B
:1005600090936E0080936D0037C0CD2B09F49CCF23
:100570008091710090917200019771F580916000F7
:1005800090916100EDCFCD2B09F48ECF8091710059
:1005900090917200009709F099CF80916F0090912F
:1005A000700018161906C4F480916D0090916E00C9
:1005B000019790936E0080936D001816190664F0F1
:1005C000809160009091610090936E0080936D0027
:1005D0001093720000937100E114F10409F40DCF3F
:1005E0000FDD0BCF80916F009091700090936E00A3
:1005F00080936D000895EE27FF27AA27BB2708C028
:10060000A20FB31FE41FF51F220F331F441F551FF6
:10061000969587957795679598F37040A9F7009719
:1006200099F7BD01CF010895A1E21A2EAA1BBB1BA9
:10063000FD010DC0AA1FBB1FEE1FFF1FA217B307AE
:10064000E407F50720F0A21BB30BE40BF50B661FC4
:10065000771F881F991F1A9469F760957095809588
:1006600090959B01AC01BD01CF010895EE0FFF1FD6
:0C0670000590F491E02D0994F894FFCF60
:02067C00100E5E
:00000001FF
